:102000000080002009290000F1280000F1280000CC
:1020100000000000000000000000000000000000C0
:10202000000000000000000000000000F128000097
:102030000000000000000000F12800005D29000001
:10204000F1280000F1280000F1280000F12800002C
:10205000F1280000F12800003D280000F5280000CC
:10206000F128000085280000F1280000F128000078
:10207000F1280000F1280000F1280000F1280000FC
:10208000F1280000F1280000F1280000F1280000EC
:1020900000000000F1280000F1280000F1280000F5
:1020A000F1280000F1280000F1280000F1280000CC
:1020B0000000000010B5064C2378002B07D1054B1B
:1020C000002B02D0044800E000BF0123237010BDA4
:1020D0001401002000000000F8640000044B10B55B
:1020E000002B03D00349044800E000BF10BDC046E8
:1020F0000000000018010020F864000010B5012164
:102100000D2000F0A9FE0021022000F0A5FE0249EA
:10211000024800F079FF10BD336000001C08002069
:1021200010B50021022000F097FE0121042000F0EC
:1021300093FE00210D2000F08FFE0121032000F00E
:102140008BFE0249024800F05FFF10BD28600000CE
:102150001C08002010B501210D2000F07DFE01219A
:10216000022000F079FE0249024800F04DFF10BD48
:102170003A6000001C08002010B500210D2000F07E
:102180006BFE0021032000F067FE0021042000F018
:1021900063FE0249024800F037FF10BD2D600000C9
:1021A0001C080020012110B5084004D101000330B3
:1021B00000F052FE10BD0320FAE70000962170B532
:1021C0008901204801F0F0F91F4CFA25200000F0A9
:1021D000DEF8200000F024F901210D2000F00CFEB3
:1021E0000121032000F008FE0121022000F004FE7E
:1021F0000121042000F000FE00210E2000F0FCFD73
:102200000221002000F0F8FD0121022000F024FE50
:102210000021042000F020FE00210D2000F01CFE13
:102220000021032000F018FE0024AD00280000F07B
:10223000D3FB20000134FFF7B5FFA3B21CB2052B7E
:10224000F4D170BD1C0800203405002070B50020BA
:1022500000F02EFE0E2000F063FD274D274E64286F
:1022600026DD274C274A2388274901331BB2280043
:10227000238003F0C1F82900300000F0C5FE0023E0
:10228000E05E0A2835DD0022204B1A801D2808DC7C
:10229000FFF788FFFFF732FFFA20800000F09CFB79
:1022A00070BD1E28F8D0FFF73BFF1F232380F3E704
:1022B000164C174A2388144901331BB22800238087
:1022C00003F09AF82900300000F09EFE0023E05E43
:1022D0000A280EDD00220A4B1A801D2804DCFFF7B5
:1022E00061FFFFF737FFD7E71E28D5D0FFF744FF80
:1022F000DBE7FFF757FFCFE7300100201C08002085
:102300003005002042600000FF03000004000020B0
:102310005A600000062313B5064C009307220233CF
:102320000121200000F039F9034A0449200002F09D
:10233000D1FB13BD3405002000000020B9230000AC
:1023400010B5084C200000F09FF92000062100F095
:10235000E9F92000012100F0C7F90221200000F076
:10236000CDF910BD4405002010B50400012180788E
:1023700000F042FDE078012100F03EFDA078002150
:1023800000F06AFDE078002100F066FD10BD837862
:1023900010B5FF2B02D1FFF7D3FF10BDFFF7E4FF0D
:1023A000FBE710B504000021807800F025FDE078FF
:1023B000002100F021FD10BD10B50400806802F07E
:1023C00091FCA378FF2B04D1044800F085F920008C
:1023D00010BD2000FFF7E5FFF9E7C04644050020E7
:1023E00070B506000C000925013DEDB2002D16D098
:1023F00063B2B0780121002B00DB002100F02CFD3E
:10240000F078012100F028FDC046C0460021F07898
:1024100000F022FDC046C0466400E4B2E4E770BDAF
:10242000F7B584680600002C00D184E003790588A4
:10243000009383780427FF2B40D1013F00213E48C1
:10244000FFB200F077F9002FF7D13379002B23D0BA
:102450002700FF21384800F06DF9E31C019339781B
:10246000009B35485943090A00F064F9019B013784
:10247000BB42F4D1013DADB20334002DE8D10024BC
:1024800033880F331B119C4255DAFF212A4801344F
:1024900000F050F9E4B2F3E7FF21274800F04AF9D1
:1024A0002700033439782448013700F043F9BC424F
:1024B000F8D1013DADB2002DEED1E0E7013F0021A2
:1024C0003000FFB2FFF78CFF002FF7D13379002BDC
:1024D00020D0FF213000FFF783FFE71C2178009B0D
:1024E000300059430134090AFFF77AFFA742F5D1BA
:1024F000013DADB23C00002DEBD1002433880F33F9
:102500001B119C4217DAFF2130000134FFF768FFEE
:10251000E4B2F3E7FF213000FFF762FFE71C217808
:1025200030000134FFF75CFFBC42F8D1013DADB291
:10253000002DEFD1E1E7F7BD44050020030010B501
:102540001A88197B5B7B8068994206D1D31C9B104B
:102550009A18002102F0D9FB10BD03235A43F8E773
:1025600070B5040080680D0002F0BCFB227B637B29
:102570009A420DD1E81C8010281880B202F0A8FB06
:10258000A060002807D025802000FFF7D7FF70BD8E
:1025900003206843F1E72080F9E710B5040002A8A2
:1025A0000078E3700023A27002002371A36003335C
:1025B0001A4022738210001118401A40A0736273EF
:1025C0002000FFF7CDFF200010BD0000F0B5040093
:1025D00085B01E000AAB1B78103001930BAB1B7843
:1025E000170002930CAB1B780D00039300F0F2F878
:1025F0002000243000F0EEF8220000234032A363D4
:10260000E363137063729D4205D10A4B0A4A22218B
:102610000A4802F0FDFA6B461B79200063716B4695
:102620001B7A2560E3716B461B7B2771A6712372B1
:1026300005B0F0BD71600000DD6000008260000048
:10264000437A002B04D18372C372C3600133437297
:10265000704730B5040085B002AD00680291039266
:1026600000F0BCFD6B79227AE179009320680023A9
:1026700000F0D6FE2979029A206800F009FE206851
:1026800000F0A2FD05B030BD70B518260400FFF7BC
:10269000D7FF3300082120790D4D4343EB185956DD
:1026A00000F01EFC33000821A0794343EB18595673
:1026B00000F016FC082160794643AD19695600F018
:1026C0000FFC044B200006CBFFF7C3FF70BDC046D4
:1026D000346100008805002010B50400006800F097
:1026E00066FD0023637210BD10B50068002903D198
:1026F000013100F07DFD10BD0021FAE710B50300A7
:10270000032908D8080002F0EDF9070B020900219F
:10271000186800F081FD10BD0121F9E70221F7E7FB
:102720000321F5E710B50068012900D8022100F067
:10273000C3FD10BD10B5006800F08EFD10BD000097
:102740001FB5094B094A0A491A6000225A711A71C9
:10275000012302930193033300930632013B0548A2
:10276000FFF734FF05B000BD8805002000093D00DB
:102770000408002044050020094B1868002809D1EE
:10278000EFF310820749002A08D172B6BFF35F8FBA
:1027900001320A701A6801321A6070470870F9E74E
:1027A0009405002090050020084B1A68002A0CD0E0
:1027B0001A68013A1A601B68002B06D1044B1B787B
:1027C000002B02D0BFF35F8F62B6704794050020E4
:1027D00090050020FF23002110B504000370FC3B8E
:1027E00041708170C170017143710C22083002F098
:1027F0008CFA200010BD000001220B0010B5134020
:1028000008D00D4B1A70042343708368002B00D04E
:10281000984710BD0222114204D007490A70437044
:10282000C368F3E704231942F3D0034A1370033358
:1028300043700369EAE7C0464E48004110B5FFF710
:102840009BFF0C4B1B8C1B071B0F0B2B0FD80A4A33
:102850009900885800280AD00F2408490A78A24312
:1028600013430B70064B1978C9B2FFF7C5FFFFF78A
:102870009BFF10BD00480041980500203F480041E3
:102880004E48004110B5024801F083FF10BDC0461C
:10289000C805002013B50D4C0D49200000F0FEFBCB
:1028A0000C490D4800F0FAFB0C490D4800F0F6FB0E
:1028B0000C490D4800F0F2FB032201230092019322
:1028C00021009B18094801F0F9FE13BD04080020FF
:1028D00000080042000C00420808002000100042DE
:1028E0000C0800200014004210080020C805002039
:1028F000FEE70000034B10B51B68002B00D0984783
:1029000010BDC0461408002070B50F490F4CA142FD
:1029100004D100F087F802F025F8FEE70C4D002303
:102920008D42F6D0CA18E818A24205D3094B82425C
:10293000EFD00949002204E0006804331060F1E799
:1029400004C38B42FCD3E4E7000000201401002004
:10295000FC64000014010020100E002010B500F0EF
:102960005EF8002801D100F04FF810BD014B18604F
:102970007047C04614080020F7B51348012284466A
:102980001249134C8E68636805689B0E13400192D0
:1029900088686268019F920E3A4067463F6893429A
:1029A0000ED1BD420CD186420AD35B19FA25486884
:1029B000AD00861B07486B437043000DC018FEBD79
:1029C0003D0013000600E3E71808002010E000E0D7
:1029D00000ED00E05555000070B5041E10D0FFF763
:1029E000CBFF050000F01AF8FFF7C6FF054B401BB0
:1029F0009842F7D9FA23013C9B00ED18002CF3D143
:102A000070BDC046E703000010B5034A13680133E8
:102A1000136000F011FB10BD180800207047002063
:102A2000704700001E22F0B5504851494368514D8F
:102A300093431A0002231343436008238A69134314
:102A4000FE228B612B68D2039B0213404A4A134338
:102A50004A4A936113000422DC681442FCD001242A
:102A6000474A14701678264203D0567876B2002E64
:102A7000F8DB01249460547864B2002CFBDB414CF9
:102A80005460547864B2002CFBDB8224E40154804F
:102A9000547864B2002CFBDB02249C840E34DE6884
:102AA0002642FCD0384CDC621024DE682642FCD082
:102AB0002C68A40E3F2C00D1203C9E6A334FA40208
:102AC0003E4034439C629C6A314EA40AA4023443C3
:102AD0009C62304CDC6200249C841034DE68264208
:102AE000FCD02D4C9C841024DE682642FCD00224AD
:102AF0009E8C34439C841024DE682642FCD0002443
:102B00009460547864B2002CFBDB244C54605478FD
:102B100064B2002CFBDB1C6A214E344080261C6210
:102B20001C6AB4431C62032393601E4B53605378AA
:102B30005BB2002BFBDB0023FF240B721A4A4B72A3
:102B40008B72CB72194B1A60194A2B6811689A065E
:102B50005B01C90E2340520F12020B431343154A67
:102B600013858023426813434360F0BD0040004159
:102B700000040040246080000606000000080040B9
:102B8000000C004001040100B905FF7DFF03FFFFB9
:102B9000FF01000080BB0A1C2405000000070300A1
:102BA000FFFCFFFF03060100006CDC0208000020B0
:102BB0002060800000400042FA212D4B10B51868BB
:102BC000890001F099FF2B4B013898424FD82A49D0
:102BD0002A4A4860C020136A00061B021B0A0343EE
:102BE000136200238B6007330B608021136A090690
:102BF0001B021B0A0B431362FC22214B196A0A4376
:102C00001A62FF22196A12020A431A62A022196A82
:102C1000D2020A431A621B4B1C005A7852B2002A95
:102C2000FBDB194A5A80194B1A00597EC909012940
:102C3000FBD0C821890099800521D970537EDB091A
:102C4000012BFBD0C02300205B011361907000F0CA
:102C500023F863785BB2002BFBDB0D4B0D4A6380DE
:102C6000D379DB09012BFBD04123537010BDFEE764
:102C700008000020FFFFFF0010E000E000ED00E092
:102C800000040040000C00401E40000000400042D4
:102C900021400000004800421F4900B50B004A7E59
:102CA000D209012AFBD001380A282FD801F01AFFD7
:102CB0001B2E2E2E2E2E062E2E2411001A69174999
:102CC0000A400F211A615A788A43110001220A43EF
:102CD00010E01A6911490A400F211A615A788A4393
:102CE00011000322F3E71A690C490A400F211A6107
:102CF0005A788A435A7000BD1A6908490A400F2160
:102D00001A615A788A4311000222E0E7F022196919
:102D100012050A43F3E7C04600400042FFFFFFF000
:102D200010B50400052800D80E340121200000F061
:102D3000D7F80E2C0DD12B4B1900DA79D209012AC4
:102D4000FBD002201A7882431A70CB79DB09012B61
:102D5000FBD025490B004A7ED209012AFBD018225C
:102D60006243224CA418207C1F240A692040A243FD
:102D700002430A615A7ED209012AFBD00222197845
:102D80000A431A705A7ED209012AFBD00222197B0B
:102D90000A431A7301221A765A7ED209012AFBD0FD
:102DA0000222197B0A431A731A7ED207FCD5588B6C
:102DB00080B25A7ED209012AFBD002211A788A43B6
:102DC0001A705A7ED209012AFBD0094B1A68094BA6
:102DD0001B689A4202D002D9D31AD84010BD9B1A60
:102DE0009840FBE700480042004000423461000088
:102DF0000C00002010000020182310B508244343C5
:102E0000134AD0180457013412D001249A5643684B
:102E10009C4003290CD808000E49D2015218D3183F
:102E2000403301F05FFE0210060B0221197054605E
:102E300010BD0621197054609461F9E706211970DC
:102E400054605461F4E7022119709460F0E7C046C1
:102E500034610000004400411823F0B508245843B1
:102E6000114A13181C5701341BD0012635005F6826
:102E70008356BD400D4ADB019A18906805420BD17C
:102E80000C00601E8441D219403210783440033661
:102E9000A400B04320431070044A9B18002901D1BC
:102EA0005D61F0BD9D61FCE73461000000440041BC
:102EB000182310B50824434307490020CA181457A3
:102EC000013408D05B560549DB015B18186A53686A
:102ED000D8400123184010BD346100000044004177
:102EE0001822424370B52D4E0300B218127A52B226
:102EF000140001320ED0481C00240C280AD801F01E
:102F0000F1FD071F1F1F1F1F1F1F1F0B0B0B0B00A8
:102F100001246442200070BD092905D10021180058
:102F2000FFF76AFF0024F5E70A2901D10839F6E71F
:102F300000240B29EED10A391800FFF75DFFE9E7FD
:102F4000182201205343F218F3565568144ADB0146
:102F50006C089B18C9B228401C1900280ED00F20FD
:102F6000303422780901024011434122C9B25B1971
:102F70002170403319780A431A70D3E722000F26D4
:102F8000303214785B19B44321431170412240332D
:102F9000197804000A431A70BCE7C0463461000087
:102FA00000440041F7B506000D000C008B1801939A
:102FB000019B671B9C4207D0336821781B68300057
:102FC000984701340028F3D13800FEBD70B50400E5
:102FD00008000D0002F042FA2368020029005B6835
:102FE0002000984770BD10B50B1E02D0FFF7EEFF12
:102FF0000300180010BD000010B50249FFF7E6FFFE
:1030000010BDC0465C63000070B50400FFF7EBFF25
:1030100005002000FFF7F0FF401970BD014B18605C
:103020007047C046140000200122024B52421A6031
:103030007047C04614000020124A1368591C20D063
:10304000013B1360002B1CD172B60F4B01221900FB
:10305000187D1042FCD02022188BFF3202431A83C5
:103060000A4ADA610A4A1A8001230A7D1A42FCD010
:10307000BFF34F8F074B084ADA60BFF34F8FC0464C
:10308000FDE77047140000200040004102100000DE
:1030900002A5FFFF00ED00E00400FA0501607047A3
:1030A0009446F0B59E1E721E9641624605689207D0
:1030B0002F6836063A4332432A60072505AC247848
:1030C0000068A4012940214342680024022B00D05B
:1030D0005C03114321434160F0BD30B5C025036856
:1030E000AD031C6812052A402243C0240904A4022F
:1030F00021401143196003685A6814435C6030BD75
:103100000123026811680B43136003681A68D20731
:10311000FCD4DA69D207F9D4704702230268116837
:103120000B4313600268D3699B07FCD470470368A4
:103130001A7ED20702D41A7E9207FCD5704700226D
:1031400003685A8370470368187E4007C00F7047B2
:103150000368187EC0097047802302685B42117EB5
:103160000B43137670470368588B8007C00F704776
:1031700002230268518B0B43538370470368187E08
:10318000C007C00F70470368188DC0B2704703684E
:103190001A7ED207FCD589B2012019857047012219
:1031A00003689A757047012203681A7570470123F6
:1031B000026811680B43136003681A68D207FCD4D5
:1031C000DA69D207F9D470470223026811680B4309
:1031D00013600268D3699B07FCD470470368DA69FF
:1031E0009207FCD402211A688A431A6070470000D3
:1031F00070B504000D00FFF7F1FF012223681540B0
:103200001968044AAD071140294319602000FFF7EF
:10321000DBFF70BDFFFFFFBF70B5012604000D008E
:10322000F14035400E40FFF7D9FF2368084A19687E
:1032300076071140314319602268064913682D074B
:103240000B402B4313602000FFF7BEFF70BDC0464C
:10325000FFFFFFDFFFFFFFEF0268936A5B0A5B027D
:103260001943916203681A7E5207FCD5986AC0B26E
:103270007047000010B54900044801F03DFC80B2E1
:10328000002801D0013880B2C0B210BD006CDC0251
:1032900070B54B080C00012105680B400C402E68EE
:1032A00024075B07234333432B6011000468FFF7B7
:1032B000E1FF207370BD000070B50E000400FFF741
:1032C0008DFF3100064801F017FC01002000FFF7D8
:1032D000D1FF256828732000FFF776FF70BDC04638
:1032E000006CDC0203680B4A93420DD00A4A9342F9
:1032F0000CD00A4A93420BD00120094A4042934223
:1033000001D1043040B270470020FBE70120F9E70B
:103310000220F7E700080042000C004200100042C3
:1033200000140042F8B5FFF7DDFF00282EDBC300D4
:103330001C481F22C01805230579C35601201A40D6
:1033400090400326C022184952001E40F6008850C3
:10335000813AB240C024D243B440002B17DA0F2682
:103360003340083B114E9B089B009B19DE6932409D
:103370001443DC613F231D408023DB011D430C4BC4
:1033800008605D805A7852B2002AFBDBF8BD064E19
:103390009B089B009B19C026B6009F593A401443D6
:1033A0009C51E7E76063000000E100E000ED00E011
:1033B000000C0040F8B504000F0016001D00FFF7D8
:1033C000B1FF2000FFF79CFE1C21BB000B407107E2
:1033D0002268090C0B431360842322689375012F24
:1033E0001AD11021012E00D008390C4B69431868FE
:1033F000C00001F081FB0722216802408B89520343
:10340000DB04DB0C13438B81226803049089DB0C03
:10341000400B400318439081F8BDC04608000020CF
:10342000F7B50500019308AB1F780E001400FFF7F5
:10343000BEFE2800FFF776FFC02224059203144049
:10344000BA070C2717433C43C02707223604BF02A4
:103450002B683E4026431E60019B296813401A00DA
:1034600080239B0213434B602A68D3695B07FCD41B
:10347000F7BD3F20704713B56B460268D97107331B
:10348000546819000122A04716BD10B50221006939
:1034900000F03AFC10BD10B50321006900F04AFCB1
:1034A00010BD000010B51300084A0400D279002AAC
:1034B00003D101230020636010BD0A0000690321CD
:1034C00000F030FD0028F4D0F6E7C0461C000020D4
:1034D00010B5054C23685A1C04D103685B699847F2
:1034E00003002060180010BD68000020074B020098
:1034F000186810B5411C03D0012252421A6010BD59
:103500000221106900F000FDF9E7C04668000020C4
:1035100010B503784222023303700249024800F0DA
:10352000ADFD10BD240000203808002010B5017842
:10353000020043780020A12908D1212B05D10722C0
:103540001649174800F09AFD012010BD2129FCD131
:10355000202B13D107221149114800F02FFC96228D
:103560000E4BD200196891420ED10124D879044043
:103570000AD1FA20FFF752FD0020E6E7222B06D100
:103580009278064BDA71EAE7FFF74EFDF4E7232B5A
:10359000DBD15288034B1A60D7E7C0461C000020DD
:1035A000380800201800002070470000FA2200218F
:1035B000054B92009A60054A596008321A60044A25
:1035C00019761A617047C0461C080020806300000D
:1035D00038080020704770B50F26CB1D0139020056
:1035E0003240D5B22C0000093034092A00DD0734FE
:1035F0001C70013B8B42F2D170BD10B50400806994
:1036000001F070FBA06A01F06DFB200010BD10B549
:103610000400FFF7F2FF200001F0CAF9200010BDFE
:1036200070B5032908D1324B8000C058002802D061
:103630000368DB68984770BD82291FD1C3B22D4D46
:103640005A01AA1891692C4C80010C40C0218905AF
:1036500021439161294908334018802150612A682B
:103660005B01D01804794942214301717020995CB3
:1036700081430800302101439954DCE70029DAD165
:10368000C024C1B21B4E4A01B21893681A4DA4055A
:103690002B40234393601A4B8001C0180B005060ED
:1036A0003068072608335B01195CB1430E00012125
:1036B0003143195491690D402C43946170240F4992
:1036C0005161195CA1430C001021214319549168E8
:1036D0000C4CC3180C408021490321439160916830
:1036E000890B89039160402259790A435A71A2E7F4
:1036F0003C080020F00C0020FFFFFF8F6408002032
:10370000240A0020FF3F00F0EFF310830360012341
:10371000436072B670470368002B02D162B6BFF3F4
:103720006F8F704737B5056904006846002D14D1C6
:10373000FFF7EAFF019B621D013B02D3D57FEDB28B
:10374000FAE768460193FFF7E6FF002D01D100205C
:103750003EBD206AE369C01AFAE7FFF7D5FF2200F1
:103760000025019B3432013B02D31578EDB2FAE714
:1037700068460193FFF7CFFF002DE8D0206BE36A86
:10378000E9E70000FF2130B54368164D1A688368E9
:103790000B405B01D21801235218947A2343937291
:1037A000836842680B405B01D418C268A368920426
:1037B0002B4012091343A360836842680B405B01EE
:1037C000D3189A68920B92039A6043681A688368C8
:1037D0000B4008335B01D318402219790A431A7150
:1037E00030BDC046FF3F00F0F7B5036904000E008E
:1037F00017006846002B45D1FFF786FF019B611D2E
:10380000013B5A1C0CD0CD7F5A1EEDB2002D05D1C4
:1038100068460193FFF77FFF2800FEBD1300F0E725
:10382000684601930025FFF776FFE369AF420AD0AF
:10383000226A9A4207D95A1CE261A269D3181B78FE
:1038400073550135F1E7226A9A42E5D10023E3611D
:10385000013323616846FFF757FF22000021019BD7
:10386000671D013B3532581CD2D0F97710785E1EA7
:10387000002805D0117020000193FFF783FFECE7CB
:103880003300F0E7FFF740FF2100019B3431013B9B
:103890005A1C06D00D785A1EEDB2002DB8D0130078
:1038A000F6E7684601930025FFF735FFE36ABD425E
:1038B00002D0226B9A421CD8226B9A42ACD10023D0
:1038C0006846E3622361FFF71FFF27002200002103
:1038D000019B3437013B3532581C99D03970107830
:1038E0005E1E00280DD0117020000193FFF74AFFE3
:1038F000EBE75A1CE262A26AD3181B7873550135B4
:10390000D4E73300E8E7F7B5FF21826843680A404F
:103910001B68083252019A18D3790400DB072AD5B4
:103920000125D571836842680B405B01D3189A6802
:1039300040699204920C002821D12262226A002A56
:103940003ED0A26A656168465A60FFF7DDFE270037
:103950002100019B661D013B343735315A1C2BD0A9
:10396000F5773A78581ED2B2002A05D001936846FE
:103970000D70FFF7D0FEF7BD0A700300EEE722637B
:10398000226B002A1CD000226261A26968465A603C
:10399000FFF7BAFE26002100019B3436013B671D6C
:1039A00035315A1C08D03570FA7F581ED2B2002A21
:1039B000DCD10A700300F4E768460193FFF7ABFE21
:1039C0002000FFF7DFFED6E737B56B46DC1D00238E
:1039D0000D0020002370FFF79BFD2B68181828604E
:1039E00001F01EF8210000F0E7FF2B68181828608E
:1039F00020783EBD03290ED180220E4B62311B6818
:103A0000FF31585C524202435A5468226339FF32F4
:103A1000FF39995470470129FCD18022054B24318C
:103A20001B68FF31585C524202435A542822233902
:103A3000FF32EDE7F00C002070B50025304B01217E
:103A4000040016201D70FFF7D7F901211620FFF79B
:103A500003FA2C4B012115201D70FFF7CDF9012130
:103A60001520FFF7F9F92023274A0F20D1690B43CE
:103A7000D361012225490B7813430B70244B19782D
:103A80008143197006211D782943197021490D7849
:103A90002A430A701A7802401A70602219780A4381
:103AA0001A701D4B1D4A5A805A78D209FCD11C4805
:103AB000FEF75CFF1B4D280000F0C4FF280000F05B
:103AC000D9FF7F212A68C120137880000B40137032
:103AD00004232A6811780B430C2113702A68138978
:103AE0008B43114913810B581B021B0A0B50802377
:103AF0000B6011787E3B0B4313700123237070BD64
:103B00005908002058080020000400405844004193
:103B10003C44004159440041000C00400640000074
:103B2000F1440000F00C002000E100E000780028E3
:103B300010D00121084B1B681A898A431A81082278
:103B4000198B0A431A830422198B0A431A83002211
:103B5000024B1A607047C046F00C0020E80C0020B1
:103B600010B50F4A93699B0B9B0393611368022264
:103B7000FF331A729879823A02439A711A7A92073D
:103B8000FCD57F24074A2140937A0800A3431900FB
:103B9000802301439172917A5B420B43937210BD73
:103BA000F00C00200050004110B50B790C00002BE8
:103BB0000CD10800FFF7BAFC002801D0012010BD8D
:103BC000094A93699B0B9B039361F7E700F028FF79
:103BD000210000F015FF0028F0D1034A93699B0BE8
:103BE0009B039361EBE7C046F00C0020F8B50D0095
:103BF000832A19D1CBB2364C5A01A21891693548A3
:103C0000AD010840C0218905014391613249206816
:103C10006D187021083355615B011A5C8A431100ED
:103C200040220A431A54F8BD022A4CD12B4A8B0079
:103C30009858002802D003685B699847382000F044
:103C4000B3FE274B802703600023214E7F00421DD7
:103C5000036203614361C36146608560C760D377D7
:103C60002F320400C362036313703800537001F0F5
:103C70002FF8A061380001F02BF82A00A062FF2085
:103C80000240510171188B68124FAD001F40C023D4
:103C90009B053B438B6013003168072608335B01AB
:103CA0005A5CB2431600032232435A54A368626836
:103CB00003405B01D318A26920005A60FFF762FD40
:103CC000064B5C51AFE711002800FFF7A9FCAAE7FB
:103CD000F00C0020FFFFFF8F640800203C0800204C
:103CE000AC63000070B505000124064BA200D25859
:103CF000002A05D021002800FFF778FF0134F4E7FF
:103D000070BDC0466C000020084B8A00D05810B52A
:103D1000002803D003689B68984710BDC9B2044BC4
:103D20004901591888688004800CF6E73C08002097
:103D3000F00C002010B50C00FFF7E6FF00280CD0B7
:103D4000064BE4B21B68083464011C1980236279B5
:103D50005B42134363710223E37110BDF00C00203A
:103D600070B5CBB2124A13485C0189018918021957
:103D700051609168104D08330D408021890229431C
:103D8000402591609168890B8903916001685A010F
:103D90008A1816793543157195796D06FCD55B0146
:103DA000C918CB79DB07FCD500198068C0B270BD9B
:103DB000240A0020F00C0020FF3F00F070B5140032
:103DC00040220B4B0D001B68FF3359790A435A718F
:103DD0000021FFF7C5FFA04200D9200000230549BC
:103DE000A34203D0CA5CEA540133F9E770BDC04670
:103DF000F00C0020240A002010B5C9B20B4849017C
:103E0000421893689B049B0C3F2B0BD99468403B52
:103E10009B04A40B9B0CA403234393604118886864
:103E2000C0B210BD93689B0B9B03F6E7F00C00201B
:103E3000F0B51C002F4B85B01B6806000D000192E9
:103E4000002B54D02C4F3978C9B2002902D115204B
:103E5000FFF702F864233B70284BAA00D0580028D3
:103E600008D0036822005B6801999847040020008D
:103E700005B0F0BD29003000FFF746FF844204D9A9
:103E800029003000FFF740FF040029003000FFF751
:103E9000B3FF0121EBB21A4F03935B010293029A25
:103EA0003B6801989B18FF335A7A0A435A72154BA4
:103EB000A901C918220000F01FFF002CD7D029004B
:103EC0003000FFF721FF0028D1D14021039B3A6841
:103ED00008335B01D3181879014319710121D97195
:103EE000029BD318FF339A7A0A439A72BFE70124E0
:103EF0006442BCE7E80C0020580800203C08002081
:103F0000F00C0020240A002013B56B46DC1D2200B3
:103F10000123FFF78DFF012801D1207816BD012074
:103F20004042FBE7F0B51E003A4B85B01B680F001E
:103F30000192002B3FD08023DB019E423BD8364CC0
:103F40002178C9B2002902D11620FEF785FF64232B
:103F500000252370314BBA01D3180293002E2CD0C8
:103F60002F4B1B680393FF233B401C000093083436
:103F7000039B64011C19A379DB0921D0294B2A4931
:103F8000186800F0B9FD294B1721584300F0B4FD23
:103F9000274BE279920713D4DA5D002A01D1013868
:103FA000F7D20122DA55009B5A011D4B9B189A69E2
:103FB000920B92039A6101256D42280005B0F0BD75
:103FC00000221B4B3400DA55402E00D94024220039
:103FD0000199029800F090FE009BA1045A01104B39
:103FE000890C9B18029A2D195A619A69361B920BFB
:103FF00092030A439A61009B039A08335B01D3182A
:104000000222DA715979823A0A435A71019B1B19CB
:104010000193A3E7E80C0020590800206408002061
:10402000F00C00200800002040420F007011010039
:104030005B08002070B50D001C000D4BAE01F6189A
:1040400011003000220000F057FEEDB209496D0169
:104050004D196E61AB69084A20001340AB61AB6932
:10406000A2049B0B920C9B031343AB6170BDC04633
:1040700064080020F00C0020FF3F00F0F7B5104B63
:1040800001901B780F001500002B0CD10D4B160072
:104090001C78002C09D00C4E0C4834882018641968
:1040A00000F02AFE34802800FEBD002EFBD03A1915
:1040B000330000210198FFF7BDFF2418361AF4E7FA
:1040C000E40B0020E50C0020E60C0020E50B0020AE
:1040D000F8B5002000AF0E001500012A27D9D31D26
:1040E0006A46DB08DB00D31A9D46080001F0B6F9EA
:1040F0006C460323022200210130400020706370CF
:10410000AA420DD2307800280AD0531CDBB2013607
:10411000A0549D4203D00232E154D2B2F0E72A000B
:1041200021000448FFF7AAFF431E9841C0B2BD46D4
:10413000F8BDC04638080020F0B50024012685B03F
:10414000184B0F0069461E7005000094FFF73CFCF9
:10415000154B01A90B806A3BFF3BCB716E3B0B7289
:10416000009B8C7109334B800E4B4E7108711C7093
:104170003A00092F0FD00D4F09223E700C4E280037
:1041800000943480FFF77AFF69462800FFF71CFC93
:10419000328808493C702800FFF770FF012005B005
:1041A000F0BDC046E40B002009020000E50C002031
:1041B000E60C0020E50B0020F0B5CF7893B00500A9
:1041C0000E00022F09D1C9882B48FFF7B5FF441E06
:1041D000A041C4B2200013B0F0BD00F021FC3100BA
:1041E00000F0FEFB002803D0C417241AE40FF1E707
:1041F000012F0BD1F2882149112A11D8D2B2002AFD
:104200000ED02800FFF73AFF0124E3E70400032F54
:10421000E0D1B378002B05D1F2881949032AEDD9F2
:104220000A78EEE7022B06D1B27916492800FFF78B
:104230004FFF0400CEE7012B02D1B2791249F5E716
:10424000032BC7D1114B01A91868FFF7C4F9104B14
:1042500003A91868FFF7BFF90E4B05A91868FFF707
:10426000BAF90D4B07A91868FFF7B5F96B46053386
:10427000DC77B27901A9D9E738080020DD630000B6
:10428000D0630000C4630000D46300000CA0800071
:1042900040A0800044A0800048A0800037B5050001
:1042A00048780C000B2810D800F01CFC061B0F2BC4
:1042B0000F41466E4A4D676A097801AA002906D166
:1042C000022311802800FFF7B5FE01203EBD002328
:1042D00013802E4B1B78012B00D113700223002179
:1042E000F0E78A780023012A03D101AA1380284B22
:1042F000F0E7264A1370274A93699B0B9B0393614F
:10430000E3E78C78012C06D10021214B01AA1C7017
:1043100011702300D6E700208442D7D11B4B013017
:104320001C4A187093699B0B9B039361CEE78978B5
:104330002800FFF715FCC8E72800FFF73DFFC5E799
:104340000123154ACBE70B780020DB06BED12800FD
:10435000FFF7C8FC2A200221A2780F4BFF301A6019
:104360000C4A13681C5C21434A241954FF34195D1C
:104370002938FF3801431955D4E70123074AAEE72E
:104380008A78064B1A60B6E700209FE75A0800209B
:1043900062080020F00C0020E80C0020EC0C00204B
:1043A0004B4BF7B51C780700002C00D083E0494E3A
:1043B00033689B8B1B070ED521002000FFF730F9D7
:1043C000326810231100FF31887A03438B72424B0D
:1043D0001C600823938333689A8B52071FD50422ED
:1043E0009A833E4A1378002B0AD01378013BDBB244
:1043F00013701378002B03D101211620FEF72CFD3A
:10440000374A1378002B0AD01378013BDBB21370C4
:104410001378002B03D101211520FEF71DFD336811
:10442000FF331A7AD2061ED510221A725979303209
:104430000A435A7160232B4938000A781A423BD14B
:10444000FFF72CFF3368FF33002838D0802299799A
:1044500052420A439A711A7A520604D540221A72BD
:10446000597A0A435A72336800241D8C01239D43F4
:10447000EDB20193E1B2002D1DD02B002341019A32
:10448000134215D02300326808335B01D318DA7960
:10449000D20702D4DB799B0707D5134BA200D05873
:1044A000002810D003681B689847019BA3409D43D8
:1044B0000134092CDED1F7BDFFF776FBC2E72021DE
:1044C0000A4A9171C7E73800FFF794FAEDE7C04652
:1044D000E50C0020F00C0020E80C0020590800201A
:1044E00058080020240A00203C080020FF5000410A
:1044F00010B50248FFF754FF10BDC0463808002031
:10450000014B024A1A607047F00C00200050004135
:104510000120704710B50368014A1B6A984710BD17
:10452000130400000300FC33D9699A69914203D057
:10453000DB69C018007D704701204042FBE710B5E1
:1045400004000069FEF7DCFD22000023FC329361C9
:10455000D36186229200A4186360A36010BDF0208E
:1045600001403039484248417047F0231B0119404F
:10457000802306209B0099420AD00133FF3301308B
:10458000994205D0802302385B00994200D0002078
:1045900070470F2001400020012903D00239481E36
:1045A0008141481C704700008923F0B5182685B06A
:1045B00002919B000400C05C330008214343324D4C
:1045C0001700EB185956FEF78BFC304B0821E05CC6
:1045D00033004343EB185956FEF782FC2C4BE25C48
:1045E0000393022A09D11133E05CFF2805D008218A
:1045F0004643AE197156FEF773FC8A26B600A05DDD
:10460000FF2819D00121FEF7F7FB1822A35D2149ED
:104610005A43AB56AD18DB0158188B218900605006
:104620001D4901225B188C218900635069688A400A
:104630008D21890062501A600122029B11002069BD
:10464000FEF7B8FE39002000FFF78FFF39000500A4
:104650002000FFF79EFF390006002000FFF77FFFD4
:1046600033000090290020690122FEF719FD0B4B51
:104670002069E25C039BE15CFEF72FFD2069FEF7F9
:104680004CFD05B0F0BDC0463461000025020000BD
:104690002702000018440041144400412602000093
:1046A000802210B504005200002100F02EFB2300F0
:1046B0000022FC335A6020009A6010BDF7B51D003F
:1046C00008AB1B780400009309AB1B78160001931C
:1046D00000234360FA239B008360114B0F000833D3
:1046E00003601430FFF7DCFF20001D30FF30FFF7C0
:1046F000D7FF89236A469B002761E654094B12784D
:10470000E554094B2000E2546A46084B1279E25402
:104710008A22293BFF3B9200A3541032A354FEBDD2
:10472000F0630000250200002602000027020000BE
:104730000300FC3358689B68C01A01D50130FF3074
:10474000704710B5040020001D30FF30FFF7F0FF68
:104750000028F8D12069FEF7EAFC10BD10B514302E
:10476000FFF7E6FF10BD0300FC3359689A689142D9
:1047700004DB5A689868801AFF30704798685B6855
:10478000C01A0138F9E710B51D30FF30FFF7EBFF15
:1047900010BD10B504000069FEF7E5FC002805D047
:1047A0002069FEF7F0FC2069FEF7E2FC2069FEF7C5
:1047B000CAFC002820D02069FEF7E5FC2200FC326C
:1047C0009369D1690133DBB28B4203D091696118DF
:1047D000087593618A239B00E35CFF2B0CD02000BB
:1047E0001430FFF7C0FF092806DC8B238D229B00C5
:1047F0009200E358A2581A602069FEF7BFFC002817
:104800001AD020001D30FF30FFF792FF002822D081
:1048100086239B00E31899685A68914218D08E212C
:104820009A684900A218515C9A680132D2B29A6023
:10483000C9B22069FEF7ABFC2069FEF789FC0028AD
:1048400005D02069FEF788FC2069FEF778FC10BDD2
:1048500001214942ECE72069FEF7A5FCECE70000E6
:1048600070B5040000690D00FEF788FC00283ED1F9
:10487000FF2686239B00E3185A689968013232406C
:104880008A4223D1EFF31083DB0710D41E4B5B6801
:10489000DB05DB0DEDD0103B5BB2002B10DA0F22F5
:1048A0001340083B9B08194A9B009B181B68206912
:1048B000FEF764FC0028DCD02000FFF76AFFD8E791
:1048C0009B08C033124A9B009B58F0E75A6801329C
:1048D00016409A68964205D08E215A684900A2185F
:1048E00055545E602069FEF75AFC012070BD20001F
:1048F0001D30FF30FFF71CFF0028B9D129002069C7
:10490000FEF745FCF1E7C04600ED00E01CED00E0DD
:1049100000E100E0030070B5FC33D9699A69040036
:1049200091421AD0DA698218157DDA690132D2B261
:10493000DA618A239B00E35CFF2B0CD0200014304B
:10494000FFF711FF0A2806DD8C238D229B009200C1
:10495000E358A2581A60280070BD01256D42E8E7AF
:104960007047000010B5FEF727F900F08DF9FFF74A
:10497000F7FF0120FEF730F8094C2000FFF75CF844
:104980002000FFF7D3F8FDF719FCFDF75FFCFEF7F9
:1049900045F8044B002BF8D000E000BFF5E7C04617
:1049A000380800200000000010B500F091F910BD9B
:1049B00010B500F097F910BD70B50E0000254468E1
:1049C000002C0BD0236831005B682000984700283A
:1049D00002DB2D18E468F3E701256D42280070BD65
:1049E00070B50D004468002C08D0236829009B682E
:1049F00020009847002802D1E468F4E7200070BD49
:104A000070B50D004468002C08D0236829001B688D
:104A100020009847002802D1E468F4E7200070BD28
:104A20000121054A10B5136804480B4003D1044C1A
:104A300043600480116010BDF40D0020F80D0020CB
:104A40000204000070B50400012304CC05001178B5
:104A500020000B43137080220021520000F055F912
:104A60002B689A78D207FCD49A789207F9D45C62C2
:104A700070BD00001F22144BF0B51B68590B9C0C35
:104A80009B01114014405B0F914200D105211F2C66
:104A900000D1023C072B00D1043B02688F01158D29
:104AA0000A491F2629403943118505683440298D5C
:104AB0000A00B24322432A8500681903028D044B81
:104AC00013400B430385F0BD246080003FF8FFFFD7
:104AD000FF8FFFFF0B0010B50100180000F0B6F8C3
:104AE00010BD000002B4714649084900095C490044
:104AF0008E4402BC7047C046002243088B4274D3E8
:104B000003098B425FD3030A8B4244D3030B8B42CE
:104B100028D3030C8B420DD3FF22090212BA030CD7
:104B20008B4202D31212090265D0030B8B4219D3B8
:104B300000E0090AC30B8B4201D3CB03C01A5241D8
:104B4000830B8B4201D38B03C01A5241430B8B4220
:104B500001D34B03C01A5241030B8B4201D30B0309
:104B6000C01A5241C30A8B4201D3CB02C01A524130
:104B7000830A8B4201D38B02C01A5241430A8B42F3
:104B800001D34B02C01A5241030A8B4201D30B02DC
:104B9000C01A5241CDD2C3098B4201D3CB01C01AF6
:104BA000524183098B4201D38B01C01A5241430900
:104BB0008B4201D34B01C01A524103098B4201D3EE
:104BC0000B01C01A5241C3088B4201D3CB00C01A5B
:104BD000524183088B4201D38B00C01A52414308D3
:104BE0008B4201D34B00C01A5241411A00D20146F8
:104BF000524110467047FFE701B5002000F006F86B
:104C000002BDC0460029F7D076E770477047C0461E
:104C100030B51C00094B05001B6885B0D868084BEF
:104C2000002A01D1074B1A000292019300912B0038
:104C30002200054900F018F800F0E4FC9400002080
:104C4000246400005E6300003164000010B50400BD
:104C500004481300002804D00A000220210000E0CC
:104C600000BF10BD000000000EB403B5010003AB8F
:104C7000044804CB0068019300F020F902B008BC9E
:104C800003B018479400002070B500260C4D0D4C61
:104C9000641BA410A64209D1002601F0B9F90A4DFF
:104CA0000A4C641BA410A64205D170BDB300EB589A
:104CB00098470136EEE7B300EB5898470136F2E724
:104CC000F8000020F8000020F8000020100100206B
:104CD00010B5034B0100186800F06AF810BDC0461B
:104CE0009400002010B5034B0100186800F016F87E
:104CF00010BDC04694000020002310B59A4200D198
:104D000010BDCC5CC4540133F8E703001218934281
:104D100000D1704719700133F9E7000070B5050044
:104D2000002910D00C1F2368002B00DAE41828009B
:104D300000F086FE1D4A1368002B05D163601460E5
:104D4000280000F07EFE70BDA34209D921686018DA
:104D50008342F3D118685B6841182160EEE71300C5
:104D60005A68002A01D0A242F9D919685818A042FD
:104D70000BD120680918581819608242E0D11068D8
:104D80005268411819605A60DAE7A04202D90C2330
:104D90002B60D5E721686018824203D11068526801
:104DA0004118216062605C60CAE7C046000E0020C6
:104DB000032370B5CD1C9D43083506000C2D1ED273
:104DC0000C25A9421DD8300000F03AFE254A14688F
:104DD0002100002919D1244C2368002B03D1300075
:104DE00000F0F8FA20602900300000F0F3FA431CCC
:104DF0002BD10C233000336000F023FE03E0002DA4
:104E0000DFDA0C233360002070BD0B685B1B19D404
:104E10000B2B03D90B60CC18256003E04B688C4248
:104E20000DD11360300000F00CFE200007220B3083
:104E3000231D9043C31AE7D05A42E250E4E763606F
:104E40000C00EFE70C004968C3E70323C41C9C4334
:104E5000A042E1D0211A300000F0BCFA431CDBD1A3
:104E6000C7E7C046000E0020040E0020936810B56E
:104E7000013B9360002B04DA9469A34207DB0A2903
:104E800005D01368581C10601970080010BD00F0A0
:104E9000EDFA0100F9E7F8B506000F001400D51887
:104EA000AC4201D1002007E021783A003000FFF742
:104EB000DDFF0134431CF3D1F8BD0000F0B59FB015
:104EC00002900F0016000593002805D08369049313
:104ED000002B01D100F096FC7B4B9F425BD1029BE3
:104EE0005F68BB891B0762D53B69002B5FD000233D
:104EF00006AC6361203363761033A37635002B78DC
:104F0000002B01D0252B5CD1AB1B04930CD03200BD
:104F100039000298FFF7BFFF431C00D1C4E062696B
:104F2000049B9446634463612B78002B00D1BBE063
:104F3000012200235242626002A9543252186E1CB0
:104F40002360E360A3601370A365317805225F4896
:104F500000F058FD751C002835D12268D30604D511
:104F6000532302A95B1820211970130704D553237A
:104F700002A95B182B21197033782A2B2CD035000D
:104F800000210A20E3682A786E1C303A092A64D985
:104F900000292ED026E04E4B9F4202D1029B9F68F3
:104FA0009FE74C4B9F429CD1029BDF6899E73900F9
:104FB000029800F0B1FA002899D0012040421FB0B9
:104FC000F0BD01359BE7414B2268C01A01238340A5
:104FD000134323602E00B8E7059B191D1B6805913C
:104FE000002B01DB099304E05B42E36002231343DF
:104FF00023602B782E2B0AD16B782A2B35D1059B79
:1050000002351A1D1B680592002B2BDB0793324ECD
:1050100029780322300000F0F5FC002806D0402358
:10502000801B8340226801351343236029780622C0
:105030002A486E1C217600F0E5FC00283AD0284B67
:10504000002B25D10722059B073393430833059393
:105050006369039A9B18636150E7434301219B18DE
:10506000350090E701235B42D0E700230A201A00B5
:105070000135636029786E1C3039092903D9002B6A
:10508000C5D00792C3E74243012352183500F1E728
:1050900005AB00933A00134B2100029800E000BFDB
:1050A0000390039B0133D3D1BB895B0600D584E712
:1050B0000B9884E705AB00933A000A4B2100029855
:1050C00000F080F8ECE7C046B864000064640000BB
:1050D000D8640000986400006A6400006E640000F8
:1050E00000000000974E0000F7B5150001938A6894
:1050F0000B6900900C00934200DA130022002B6031
:1051000043321278002A01D001332B6023689B06BA
:1051100002D52B6802332B60062723681F4027D057
:10512000230043331B785A1E93412268920630D4E1
:105130002200019943320098089EB047431C25D0B5
:10514000062320682A68E16803400025042B03D168
:105150008D1AEB43DB171D40A3682269934201DDE2
:105160009B1AED180027BD4220D1002010E0013726
:10517000E3682A689B1ABB42D2DD22000123193260
:1051800001990098089EB047431CF0D1012040428D
:10519000FEBD3020E1184331087021005A1C453112
:1051A0000978A218433202331170C1E722000123AB
:1051B0001A3201990098089EB047431CE6D0013787
:1051C000D1E70000F0B589B004920A00433205939C
:1051D000039002920A7E0C000E9B6E2A00D186E09C
:1051E0001FD8632A33D008D8002A00D18CE0582A6F
:1051F0004DD0250042352A7030E0642A01D0692A5A
:10520000F7D1196825680A1D280629D508681A608B
:10521000002803DA2D23029A404213706B4E0A27AE
:105220004FE0732A74D008D86F2A1FD0702AE0D1BB
:10523000202209680A43226003E0752A16D0782AE2
:10524000D7D12200782145321170614E22E025002D
:105250001A684235111D196013682B70012365E02F
:1052600008681A606906D3D500B2D1E719682568C5
:10527000081D186008682E0605D5544E08276F2AA9
:105280001BD00A2719E06D06F7D580B2F5E7453146
:105290004E4E0A7018682268011D006819601506D4
:1052A00021D5D30702D520231A43226010270028D6
:1052B00003D1202322689A43226023000022433333
:1052C0001A706368A360002B58DB042221689143A5
:1052D0002160002854D1029D002B5AD0250033783C
:1052E00042352B7055E05506DBD580B2D9E71A68F8
:1052F0000D68101D4969186013682E0601D51960E4
:1053000002E06D06FBD519800023029D23614FE06A
:105310001A68111D1960156800216268280000F0E4
:1053200071FB002801D0401B60606368236100238B
:10533000029A13703CE023692A0004990398059DA2
:10534000A847431C3ED023689B0715D4079BE06801
:10535000984239DA180037E0220001231932049903
:105360000398059EB047431C2CD00135E368079A8B
:105370009B1AAB42F0DCE9E70025F7E70028ADD047
:10538000029D3900FFF73EFC735C013D2B70002845
:10539000F7D1082F09D12368DB0706D56368226996
:1053A000934202DC3023013D2B70029B5B1B236187
:1053B000059B07AA00932100049B0398FFF794FE26
:1053C000431CB8D10120404209B0F0BD7564000013
:1053D00086640000002370B5064C050008002360B9
:1053E00000F0FEFD431C03D12368002B00D02B608E
:1053F00070BDC0460C0E00200CB430B5164B9DB0ED
:105400000C1E1D6808DA8B2301202B6040421DB062
:1054100030BC08BC02B01847822302A99B008B81D4
:105420000023029008619C4200D0631E8B604B6198
:1054300001235B42CB81209A21AB2800019300F02D
:1054400089FB431C01DA8B232B60002CDFD0002367
:10545000029A1370DBE7C046940000200023C25C70
:105460000133002AFBD1581E70470000F8B5050033
:105470000E001400002804D08369002B01D100F035
:10548000C1F9224B9C422DD16C68A369A360A3890A
:105490001B0731D52369002B2ED023682269F7B270
:1054A000981A6369F6B2834205DC2100280000F0F7
:1054B0003BF9002826D1A3680130013BA360236893
:1054C0005A1C22601F706369834204D0A389DB07E2
:1054D0001AD50A2E18D12100280000F025F900283D
:1054E00012D00FE00A4B9C4201D1AC68CDE7094BCA
:1054F0009C42CAD1EC68C8E72100280000F00CF8F3
:105500000028CAD0012676423000F8BDB8640000F9
:10551000D864000098640000364B70B51D68060022
:105520000C00002D05D0AB69002B02D1280000F043
:1055300069F9314B9C420FD16C680C23E25E93B247
:1055400019072DD4D90611D409230120336037332C
:105550001343A381404270BD284B9C4201D1AC68EB
:10556000EBE7274B9C42E8D1EC68E6E75B0713D5F5
:10557000616B002908D023004433994202D03000E7
:10558000FFF7CCFB002363632422A3899343A38109
:1055900000236360236923600823A2891343A38146
:1055A0002369002B0BD1A0218022A38989009200BE
:1055B0000B40934203D02100300000F0DFF90123BB
:1055C000A289134011D00023A36063695B42A361E9
:1055D000002023698342BED10C23E25E1306BAD5B4
:1055E00040231343A3810138B5E7920700D46369D0
:1055F000A360EDE794000020B8640000D8640000C8
:105600009864000010B5062000F0CCFB012000F0EB
:10561000FDFC0000F7B58A8905000C00130760D473
:105620004B68002B04DC0B6C002B01DC0020FEBD62
:10563000E76A002FFAD000232E682B6080235B01DD
:10564000216A1A4034D0606DA3895B0706D5636870
:10565000C01A636B002B01D0236CC01A0200216AB0
:1056600000232800E76AB847A189431C06D12B68AC
:105670001D2B30D82B4ADA40D3072CD5002363608A
:1056800023692360CB0405D5431C02D12B68002B72
:1056900000D16065616B2E600029C7D023004433C0
:1056A000994202D02800FFF739FB00206063BEE773
:1056B00001232800B847431CC6D12B68002BC3D058
:1056C0001D2B01D0162B01D12E60AFE74023A289FC
:1056D0001343A381ABE740230B430120A381404246
:1056E000A5E70F69002FA1D00B680F60DB1B0193AA
:1056F0000023920700D14B69A360019B002B00DCC3
:1057000094E7019B3A00216A2800A66AB047002866
:1057100003DC4023A2891343DFE7019B3F181B1AD8
:105720000193EAE7010040200B6970B505000C0009
:10573000002B01D1002070BD002804D08369002B0C
:1057400001D100F05FF80B4B9C4209D16C680C2230
:10575000A35E002BEED021002800FFF75BFFEAE7F5
:10576000054B9C4201D1AC68F1E7044B9C42EED161
:10577000EC68ECE7B8640000D864000098640000AE
:10578000002310B504000360436083608181436699
:10579000C281036143618361190008225C30FFF715
:1057A000B4FA054B24626362044BA362044BE362C8
:1057B000044B236310BDC046E55D00000D5E000094
:1057C000455E0000715E000010B5024900F08CF8E3
:1057D00010BDC0462957000070B568254A1E5543C4
:1057E0000E0029007431FFF7E3FA041E08D00021EF
:1057F0002A00016046600C30A0606832FFF785FA2D
:10580000200070BD836913B50400002B28D1836488
:10581000C3640365134B144A1B6882620193984268
:1058200001D101238361200000F020F86060200096
:1058300000F01CF8A060200000F018F80022E060E2
:1058400004216068FFF79CFF01220921A068FFF78F
:1058500097FF02221221E068FFF792FF0123A36164
:1058600013BDC04660640000C9570000F8B51C4B6A
:1058700007001E68B369002B02D13000FFF7C2FF9A
:105880004836B4687368013B04D53368002B07D0F1
:105890003668F6E70C22A55E002D0DD06834F2E7DD
:1058A00004213800FFF798FF30600028F0D10C2366
:1058B00004003B602000F8BD20000A4B65662560AF
:1058C0006560A560E36025616561A5610822290026
:1058D0005C30FFF71AFA6563A563A564E564E9E740
:1058E000606400000100FFFFF7B504000700002618
:1058F00001914834002C01D13000FEBD6368A568D9
:105900000093009B013B009301D52468F2E7AB892B
:10591000012B08D90E22AB5E013304D029003800D8
:10592000019B984706436835EBE7000070B50E0011
:105930001D000E23C95E96B01400002907DA00236B
:105940002B60B3891B0611D48023DB000FE06A466D
:1059500000F0BAFA0028F2DBF022019B1202134099
:10596000054A9B185A4253412B60EDE74023002023
:10597000236016B070BDC04600E0FFFFF7B50226F9
:105980008B8905000C00334206D023004733236087
:10599000236101236361F7BD01AB6A46FFF7C6FFD0
:1059A000009907002800FFF703FA002808D10C220D
:1059B000A35E9A05EFD4032293431E43A681E4E736
:1059C0000F4BAB628023A28920601343A381009B0D
:1059D00020616361019B002B0DD00E23E15E280046
:1059E00000F084FA002806D00322A38993431A000A
:1059F00001231343A381A0893843A081CBE7C0468C
:105A0000C9570000C9B28218904201D100207047E6
:105A100003788B42FBD00130F6E710B5884202D9FB
:105A20008B18984203D3002307E08B5C8354013A20
:105A3000FBD210BDCC5CC45401339A42FAD1F8E7D2
:105A400070477047F8B507000D001600002905D112
:105A50001100FFF7ADF904002000F8BD002A03D1C2
:105A6000FFF75CF93400F7E700F066FA2C00B0426B
:105A7000F2D231003800FFF79BF9041EECD0290068
:105A80003200FFF739F929003800FFF747F9E3E75B
:105A9000F0B58E6885B007000C00039201939E421A
:105AA0003CD890238A89DB001A4234D00325096947
:105AB00023685B1A0293636902985D43EB0F5D19DB
:105AC000019B6D1001331B18AB4200D91D0053051B
:105AD00032D529003800FFF76BF9061E09D10C23D7
:105AE0003B6040230120A28940421343A38105B0BB
:105AF000F0BD029A2169FFF7FFF8A389144A1A4002
:105B000080231343A381029B2661F61826606561FA
:105B1000019EED1AA560019B9E4200D9019E3200B4
:105B200003992068FFF779FFA36800209B1BA360FF
:105B300023689E192660DAE72A003800FFF782FF03
:105B4000061EE0D121693800FFF7E8F8C7E7C04634
:105B50007FFBFFFFF0B59FB0029005938B890F008C
:105B600016001B0611D50B69002B0ED14021FFF743
:105B70001FF938603861002805D10C23029A0138DA
:105B800013601FB0F0BD40237B61002306AC63614E
:105B9000203363761033A37635002B78002B01D0A9
:105BA000252B46D1AB1B04930CD032003900029850
:105BB000FFF76EFF431C00D1AEE06269049B944680
:105BC000634463612B78002B00D1A5E00122002300
:105BD0005242626002A9543252186E1C2360E36084
:105BE000A3601370A365317805225448FFF70AFFBC
:105BF000751C00281FD12268D30604D5532302A99F
:105C00005B1820211970130704D5532302A95B18D0
:105C10002B21197033782A2B16D0350000210A2049
:105C2000E3682A786E1C303A092A4ED9002918D028
:105C300010E00135B1E7414B2268C01A01238340CF
:105C4000134323602E00CEE7059B191D1B680591A9
:105C5000002B01DB099304E05B42E3600223134362
:105C600023602B782E2B0AD16B782A2B35D1059BFC
:105C700002351A1D1B680592002B2BDB0793304E53
:105C8000297803223000FFF7BDFE002806D040230C
:105C9000801B834022680135134323602978062244
:105CA00028486E1C2176FFF7ADFE00283CD0264B1D
:105CB000002B25D10722059B073393430833059317
:105CC0006369039A9B18636166E7434301219B184C
:105CD0003500A6E701235B42D0E700230A201A0023
:105CE0000135636029786E1C3039092903D9002BEE
:105CF000C5D00792C3E74243012352183500F1E7AC
:105D000005AB00933A00114B2100029800E000BF60
:105D10000390039B0133D3D1BB890B985B0600D45E
:105D20002FE7012040422CE705AB00933A00074BD8
:105D300021000298FFF746FAEAE7C04664640000D3
:105D40006A6400006E64000000000000915A0000C8
:105D500070B504000D001F2904D91623036001202B
:105D6000404270BD436C002B04D08A009B181A6817
:105D7000002A08D1200000F031F82A00010020009C
:105D800000F01AF8EDE70020012AEAD0511C03D1F7
:105D9000162301302360E4E7002428001C609047AC
:105DA0002000DEE710B5034B01001868FFF7D0FFB5
:105DB00010BDC04694000020002370B5064C0500BD
:105DC00008001100236000F0F3F8431C03D123689E
:105DD000002B00D02B6070BD0C0E002010B500F021
:105DE000D7F810BD70B50C000E25495F00F0ACF877
:105DF000002803DB636D1B18636570BDA389024A2D
:105E00001340A381F9E7C046FFEFFFFFF8B51F007D
:105E10008B8905000C001600DB0505D50E23C95E35
:105E20000022022300F074F8A389054A28001340D9
:105E3000A38132000E23E15E3B0000F01FF8F8BDA5
:105E4000FFEFFFFF70B50C000E25495F00F060F812
:105E5000A389421C03D1054A1340A38170BD80224F
:105E600052011343A3816065F8E7C046FFEFFFFFCF
:105E700010B50E23C95E00F015F810BD70B5050011
:105E8000080011000022064C22601A0000F0B6F84B
:105E9000431C03D12368002B00D02B6070BDC0468B
:105EA0000C0E0020002370B5064C0500080023608E
:105EB00000F05EF8431C03D12368002B00D02B6058
:105EC00070BDC0460C0E0020002370B5064C0500C6
:105ED00008001100236000F053F8431C03D123682D
:105EE000002B00D02B6070BD0C0E0020002370B57D
:105EF000064C05000800236000F052F8431C03D153
:105F00002368002B00D02B6070BDC0460C0E002013
:105F100070B50500080011000022064C22601A002E
:105F200000F04EF8431C03D12368002B00D02B60F7
:105F300070BDC0460C0E00200B1F1B68181F002BE5
:105F400001DA0B58C018704770B505000800110041
:105F50000022064C22601A0000F03AF8431C03D1DC
:105F60002368002B00D02B6070BDC0460C0E0020B3
:105F700058220120014B40421A6070470C0E00204D
:105F800058220120014B40421A6070470C0E00203D
:105F900058220120014B40421A6070470C0E00202D
:105FA0005822024B00201A607047C0460C0E002099
:105FB00058220120014B40421A6070470C0E00200D
:105FC00058220120014B40421A6070470C0E0020FD
:105FD00058220120014B40421A6070470C0E0020ED
:105FE000044A1368002B00D1034B181810601800E6
:105FF0007047C046080E0020100E002058220120D5
:10600000014B40421A6070470C0E0020FEE7C0466C
:10601000F8B5C046F8BC08BC9E467047F8B5C04607
:10602000F8BC08BC9E46704770694F6E0070694F9F
:10603000666600736F66744F6E00736F66744F66AA
:106040006600676F6F64206C6967687420646574AC
:1060500065637465643A202564006C6F77206C6911
:106060006768742064657465637465643A202564A8
:1060700000705F736572636F6D20213D204E554C3B
:106080004C002F55736572732F746166322F4C6903
:1060900062726172792F41726475696E6F31352F4A
:1060A0007061636B616765732F61646166727569A6
:1060B000742F68617264776172652F73616D642FEC
:1060C000312E352E31342F6C6962726172696573BD
:1060D0002F5350492F5350492E637070005350492D
:1060E000436C6173733A3A535049436C617373283C
:1060F000534552434F4D2A2C2075696E74385F7496
:106100002C2075696E74385F742C2075696E743834
:106110005F742C20536572636F6D537069545850CF
:1061200061642C20536572636F6D5258506164290D
:106130000000000000000000080000000300000054
:106140001C00000010000000000010000000000013
:106150000200000001000000020000000000FFFF3C
:10616000FFFF020000000000090000000300000023
:106170001C000000110001000100090000000000E7
:1061800007000000030000001C00000007000101E0
:1061900001010700000000000600000003000000ED
:1061A0001C000000060000010001060000000000C5
:1061B00008000000020000001C00000010000000A9
:1061C00000001000000000000900000002000000B4
:1061D0001C00000011000100010009000000000087
:1061E0000000000008000000000000000400FFFFA5
:1061F000FFFF040000000000010000000800000094
:10620000000000000500FFFFFFFF05000000000088
:106210001C0000000600000000000000FF00FFFF5F
:10622000FFFFFF0000000000180000000600000053
:1062300000000000FF00FFFFFFFFFF000000000064
:10624000190000000600000000000000FF00FFFF32
:10625000FFFFFF00000000000A000000080000002F
:1062600004000000FF00FFFFFFFF0A000000000025
:106270000A0000000800000004000000FF00FFFF0B
:10628000FFFF0A0000000000020000000100000003
:10629000020000000000FFFFFFFF020000000000FE
:1062A00009000000010000001E00000011000100B4
:1062B00001000900000000000800000001000000CB
:1062C0001E00000010000000000010000000000090
:1062D00007000000010000001E000000070001018F
:1062E000010107000000000006000000010000009E
:1062F0001E00000006000001000106000000000072
:106300001E0000000400000000000000FF00FFFF6E
:10631000FFFFFF00000000001F000000040000005D
:1063200000000000FF00FFFFFFFFFF000000000073
:106330000E0000000800000004000000FF00FFFF46
:10634000FFFF0E00000000000F000000080000002A
:106350001C000000FF00010301030F000D0A0000F4
:106360000008004214090000000C0042150A000059
:1063700000100042160B000000140042170C000031
:10638000000000000000000077340000A534000089
:1063900073340000973400008B340000ED340000AB
:1063A000D1340000000000000000000007390000A8
:1063B000E937000025370000D5350000FB35000027
:1063C0000F3600005472696E6B6574204D3000000A
:1063D0000403090441646166727569740012010066
:1063E00002EF0201409A231E800001010203010016
:1063F000000000000000000061480000A52F000020
:1064000087470000434700005D4700001549000032
:106410002545000015450000A94500003F45000046
:10642000114500002C2066756E6374696F6E3A200A
:1064300000617373657274696F6E20222573222068
:106440006661696C65643A2066696C652022257313
:10645000222C206C696E65202564257325730A0043
:1064600098000020232D302B2000686C4C006566BE
:106470006745464700303132333435363738394195
:1064800042434445460030313233343536373839AB
:1064900061626364656600000000000000000000A7
:1064A00000000000000000000000000000000000EC
:1064B00000000000000000000000000000000000DC
:1064C00000000000000000000000000000000000CC
:1064D00000000000000000000000000000000000BC
:1064E00000000000000000000000000000000000AC
:0C64F000000000000000000000000000A0
:1064FC00000000001F00000040420F000A000000D6
:10650C000A000000FFFFFFFFFFFFFFFF00C20100BA
:10651C0000000800080B0002020200000904000041
:10652C0001020200000524001001042402060524C7
:10653C000600010524010101070581031000100963
:10654C00040100020A0000000705020240000007D7
:10655C000583024000000000FFFFFFFF0000000069
:10656C008300000002000000820000000000000018
:10657C00000000000000000000000000000000000F
:10658C00000000009800002000000000B86400002B
:10659C00D8640000986400000000000000000000B7
:1065AC0000000000000000000000000000000000DF
:1065BC0000000000000000000000000000000000CF
:1065CC0000000000000000000000000000000000BF
:1065DC0000000000000000000000000000000000AF
:1065EC000000000000000000DD200000152300006A
:1065FC004127000095280000AD3500000145000042
:04660C00B5200000B5
:0400000300002909C7
:00000001FF
